{
  "_format": "hh-sol-artifact-1",
  "contractName": "PLUTO",
  "sourceName": "contracts/Pluto.sol",
  "abi": [
    {
      "anonymous": false,
      "inputs": [
        {
          "indexed": false,
          "internalType": "address",
          "name": "previousAdmin",
          "type": "address"
        },
        {
          "indexed": false,
          "internalType": "address",
          "name": "newAdmin",
          "type": "address"
        }
      ],
      "name": "AdminChanged",
      "type": "event"
    },
    {
      "anonymous": false,
      "inputs": [
        {
          "indexed": true,
          "internalType": "address",
          "name": "owner",
          "type": "address"
        },
        {
          "indexed": true,
          "internalType": "address",
          "name": "spender",
          "type": "address"
        },
        {
          "indexed": false,
          "internalType": "uint256",
          "name": "value",
          "type": "uint256"
        }
      ],
      "name": "Approval",
      "type": "event"
    },
    {
      "anonymous": false,
      "inputs": [
        {
          "indexed": true,
          "internalType": "address",
          "name": "beacon",
          "type": "address"
        }
      ],
      "name": "BeaconUpgraded",
      "type": "event"
    },
    {
      "anonymous": false,
      "inputs": [
        {
          "indexed": false,
          "internalType": "uint8",
          "name": "version",
          "type": "uint8"
        }
      ],
      "name": "Initialized",
      "type": "event"
    },
    {
      "anonymous": false,
      "inputs": [
        {
          "indexed": true,
          "internalType": "address",
          "name": "previousOwner",
          "type": "address"
        },
        {
          "indexed": true,
          "internalType": "address",
          "name": "newOwner",
          "type": "address"
        }
      ],
      "name": "OwnershipTransferred",
      "type": "event"
    },
    {
      "anonymous": false,
      "inputs": [
        {
          "indexed": true,
          "internalType": "address",
          "name": "from",
          "type": "address"
        },
        {
          "indexed": true,
          "internalType": "address",
          "name": "to",
          "type": "address"
        },
        {
          "indexed": false,
          "internalType": "uint256",
          "name": "value",
          "type": "uint256"
        }
      ],
      "name": "Transfer",
      "type": "event"
    },
    {
      "anonymous": false,
      "inputs": [
        {
          "indexed": true,
          "internalType": "address",
          "name": "implementation",
          "type": "address"
        }
      ],
      "name": "Upgraded",
      "type": "event"
    },
    {
      "inputs": [
        {
          "internalType": "address",
          "name": "owner",
          "type": "address"
        },
        {
          "internalType": "address",
          "name": "spender",
          "type": "address"
        }
      ],
      "name": "allowance",
      "outputs": [
        {
          "internalType": "uint256",
          "name": "",
          "type": "uint256"
        }
      ],
      "stateMutability": "view",
      "type": "function"
    },
    {
      "inputs": [
        {
          "internalType": "address",
          "name": "spender",
          "type": "address"
        },
        {
          "internalType": "uint256",
          "name": "amount",
          "type": "uint256"
        }
      ],
      "name": "approve",
      "outputs": [
        {
          "internalType": "bool",
          "name": "",
          "type": "bool"
        }
      ],
      "stateMutability": "nonpayable",
      "type": "function"
    },
    {
      "inputs": [
        {
          "internalType": "address",
          "name": "account",
          "type": "address"
        }
      ],
      "name": "balanceOf",
      "outputs": [
        {
          "internalType": "uint256",
          "name": "",
          "type": "uint256"
        }
      ],
      "stateMutability": "view",
      "type": "function"
    },
    {
      "inputs": [],
      "name": "decimals",
      "outputs": [
        {
          "internalType": "uint8",
          "name": "",
          "type": "uint8"
        }
      ],
      "stateMutability": "view",
      "type": "function"
    },
    {
      "inputs": [
        {
          "internalType": "address",
          "name": "spender",
          "type": "address"
        },
        {
          "internalType": "uint256",
          "name": "subtractedValue",
          "type": "uint256"
        }
      ],
      "name": "decreaseAllowance",
      "outputs": [
        {
          "internalType": "bool",
          "name": "",
          "type": "bool"
        }
      ],
      "stateMutability": "nonpayable",
      "type": "function"
    },
    {
      "inputs": [
        {
          "internalType": "address",
          "name": "spender",
          "type": "address"
        },
        {
          "internalType": "uint256",
          "name": "addedValue",
          "type": "uint256"
        }
      ],
      "name": "increaseAllowance",
      "outputs": [
        {
          "internalType": "bool",
          "name": "",
          "type": "bool"
        }
      ],
      "stateMutability": "nonpayable",
      "type": "function"
    },
    {
      "inputs": [],
      "name": "initialize",
      "outputs": [],
      "stateMutability": "nonpayable",
      "type": "function"
    },
    {
      "inputs": [],
      "name": "name",
      "outputs": [
        {
          "internalType": "string",
          "name": "",
          "type": "string"
        }
      ],
      "stateMutability": "view",
      "type": "function"
    },
    {
      "inputs": [],
      "name": "owner",
      "outputs": [
        {
          "internalType": "address",
          "name": "",
          "type": "address"
        }
      ],
      "stateMutability": "view",
      "type": "function"
    },
    {
      "inputs": [],
      "name": "proxiableUUID",
      "outputs": [
        {
          "internalType": "bytes32",
          "name": "",
          "type": "bytes32"
        }
      ],
      "stateMutability": "view",
      "type": "function"
    },
    {
      "inputs": [],
      "name": "renounceOwnership",
      "outputs": [],
      "stateMutability": "nonpayable",
      "type": "function"
    },
    {
      "inputs": [],
      "name": "symbol",
      "outputs": [
        {
          "internalType": "string",
          "name": "",
          "type": "string"
        }
      ],
      "stateMutability": "view",
      "type": "function"
    },
    {
      "inputs": [],
      "name": "totalSupply",
      "outputs": [
        {
          "internalType": "uint256",
          "name": "",
          "type": "uint256"
        }
      ],
      "stateMutability": "view",
      "type": "function"
    },
    {
      "inputs": [
        {
          "internalType": "address",
          "name": "to",
          "type": "address"
        },
        {
          "internalType": "uint256",
          "name": "amount",
          "type": "uint256"
        }
      ],
      "name": "transfer",
      "outputs": [
        {
          "internalType": "bool",
          "name": "",
          "type": "bool"
        }
      ],
      "stateMutability": "nonpayable",
      "type": "function"
    },
    {
      "inputs": [
        {
          "internalType": "address",
          "name": "from",
          "type": "address"
        },
        {
          "internalType": "address",
          "name": "to",
          "type": "address"
        },
        {
          "internalType": "uint256",
          "name": "amount",
          "type": "uint256"
        }
      ],
      "name": "transferFrom",
      "outputs": [
        {
          "internalType": "bool",
          "name": "",
          "type": "bool"
        }
      ],
      "stateMutability": "nonpayable",
      "type": "function"
    },
    {
      "inputs": [
        {
          "internalType": "address",
          "name": "newOwner",
          "type": "address"
        }
      ],
      "name": "transferOwnership",
      "outputs": [],
      "stateMutability": "nonpayable",
      "type": "function"
    },
    {
      "inputs": [
        {
          "internalType": "address",
          "name": "newImplementation",
          "type": "address"
        }
      ],
      "name": "upgradeTo",
      "outputs": [],
      "stateMutability": "nonpayable",
      "type": "function"
    },
    {
      "inputs": [
        {
          "internalType": "address",
          "name": "newImplementation",
          "type": "address"
        },
        {
          "internalType": "bytes",
          "name": "data",
          "type": "bytes"
        }
      ],
      "name": "upgradeToAndCall",
      "outputs": [],
      "stateMutability": "payable",
      "type": "function"
    }
  ],
  "bytecode": "0x60a06040523073ffffffffffffffffffffffffffffffffffffffff1660809073ffffffffffffffffffffffffffffffffffffffff1681525034801561004357600080fd5b506080516130e161007b60003960008181610550015281816105de0152818161070f0152818161079d015261084d01526130e16000f3fe6080604052600436106101095760003560e01c806370a082311161009557806395d89b411161006457806395d89b411461034c578063a457c2d714610377578063a9059cbb146103b4578063dd62ed3e146103f1578063f2fde38b1461042e57610109565b806370a08231146102b6578063715018a6146102f35780638129fc1c1461030a5780638da5cb5b1461032157610109565b8063313ce567116100dc578063313ce567146101de5780633659cfe61461020957806339509351146102325780634f1ef2861461026f57806352d1902d1461028b57610109565b806306fdde031461010e578063095ea7b31461013957806318160ddd1461017657806323b872dd146101a1575b600080fd5b34801561011a57600080fd5b50610123610457565b6040516101309190611bc2565b60405180910390f35b34801561014557600080fd5b50610160600480360381019061015b9190611c8c565b6104e9565b60405161016d9190611ce7565b60405180910390f35b34801561018257600080fd5b5061018b61050c565b6040516101989190611d11565b60405180910390f35b3480156101ad57600080fd5b506101c860048036038101906101c39190611d2c565b610516565b6040516101d59190611ce7565b60405180910390f35b3480156101ea57600080fd5b506101f3610545565b6040516102009190611d9b565b60405180910390f35b34801561021557600080fd5b50610230600480360381019061022b9190611db6565b61054e565b005b34801561023e57600080fd5b5061025960048036038101906102549190611c8c565b6106d6565b6040516102669190611ce7565b60405180910390f35b61028960048036038101906102849190611f18565b61070d565b005b34801561029757600080fd5b506102a0610849565b6040516102ad9190611f8d565b60405180910390f35b3480156102c257600080fd5b506102dd60048036038101906102d89190611db6565b610902565b6040516102ea9190611d11565b60405180910390f35b3480156102ff57600080fd5b5061030861094b565b005b34801561031657600080fd5b5061031f61095f565b005b34801561032d57600080fd5b50610336610b3c565b6040516103439190611fb7565b60405180910390f35b34801561035857600080fd5b50610361610b66565b60405161036e9190611bc2565b60405180910390f35b34801561038357600080fd5b5061039e60048036038101906103999190611c8c565b610bf8565b6040516103ab9190611ce7565b60405180910390f35b3480156103c057600080fd5b506103db60048036038101906103d69190611c8c565b610c6f565b6040516103e89190611ce7565b60405180910390f35b3480156103fd57600080fd5b5061041860048036038101906104139190611fd2565b610c92565b6040516104259190611d11565b60405180910390f35b34801561043a57600080fd5b5061045560048036038101906104509190611db6565b610d19565b005b60606036805461046690612041565b80601f016020809104026020016040519081016040528092919081815260200182805461049290612041565b80156104df5780601f106104b4576101008083540402835291602001916104df565b820191906000526020600020905b8154815290600101906020018083116104c257829003601f168201915b5050505050905090565b6000806104f4610d9c565b9050610501818585610da4565b600191505092915050565b6000603554905090565b600080610521610d9c565b905061052e858285610f6d565b610539858585610ff9565b60019150509392505050565b60006012905090565b7f000000000000000000000000000000000000000000000000000000000000000073ffffffffffffffffffffffffffffffffffffffff163073ffffffffffffffffffffffffffffffffffffffff16036105dc576040517f08c379a00000000000000000000000000000000000000000000000000000000081526004016105d3906120e4565b60405180910390fd5b7f000000000000000000000000000000000000000000000000000000000000000073ffffffffffffffffffffffffffffffffffffffff1661061b611272565b73ffffffffffffffffffffffffffffffffffffffff1614610671576040517f08c379a000000000000000000000000000000000000000000000000000000000815260040161066890612176565b60405180910390fd5b61067a816112c9565b6106d381600067ffffffffffffffff81111561069957610698611ded565b5b6040519080825280601f01601f1916602001820160405280156106cb5781602001600182028036833780820191505090505b5060006112d4565b50565b6000806106e1610d9c565b90506107028185856106f38589610c92565b6106fd91906121c5565b610da4565b600191505092915050565b7f000000000000000000000000000000000000000000000000000000000000000073ffffffffffffffffffffffffffffffffffffffff163073ffffffffffffffffffffffffffffffffffffffff160361079b576040517f08c379a0000000000000000000000000000000000000000000000000000000008152600401610792906120e4565b60405180910390fd5b7f000000000000000000000000000000000000000000000000000000000000000073ffffffffffffffffffffffffffffffffffffffff166107da611272565b73ffffffffffffffffffffffffffffffffffffffff1614610830576040517f08c379a000000000000000000000000000000000000000000000000000000000815260040161082790612176565b60405180910390fd5b610839826112c9565b610845828260016112d4565b5050565b60007f000000000000000000000000000000000000000000000000000000000000000073ffffffffffffffffffffffffffffffffffffffff163073ffffffffffffffffffffffffffffffffffffffff16146108d9576040517f08c379a00000000000000000000000000000000000000000000000000000000081526004016108d09061226b565b60405180910390fd5b7f360894a13ba1a3210667c828492db98dca3e2076cc3735a920a3ca505d382bbc60001b905090565b6000603360008373ffffffffffffffffffffffffffffffffffffffff1673ffffffffffffffffffffffffffffffffffffffff168152602001908152602001600020549050919050565b610953611442565b61095d60006114c0565b565b60008060019054906101000a900460ff161590508080156109905750600160008054906101000a900460ff1660ff16105b806109bd575061099f30611586565b1580156109bc5750600160008054906101000a900460ff1660ff16145b5b6109fc576040517f08c379a00000000000000000000000000000000000000000000000000000000081526004016109f3906122fd565b60405180910390fd5b60016000806101000a81548160ff021916908360ff1602179055508015610a39576001600060016101000a81548160ff0219169083151502179055505b610aad6040518060400160405280600581526020017f504c55544f0000000000000000000000000000000000000000000000000000008152506040518060400160405280600381526020017f504c5400000000000000000000000000000000000000000000000000000000008152506115a9565b610ab5611606565b610ae033610ac1610545565b600a610acd9190612450565b62989680610adb919061249b565b61165f565b8015610b395760008060016101000a81548160ff0219169083151502179055507f7f26b83ff96e1f2b6a682f133852f6798a09c465da95921460cefb38474024986001604051610b309190612522565b60405180910390a15b50565b600060c960009054906101000a900473ffffffffffffffffffffffffffffffffffffffff16905090565b606060378054610b7590612041565b80601f0160208091040260200160405190810160405280929190818152602001828054610ba190612041565b8015610bee5780601f10610bc357610100808354040283529160200191610bee565b820191906000526020600020905b815481529060010190602001808311610bd157829003601f168201915b5050505050905090565b600080610c03610d9c565b90506000610c118286610c92565b905083811015610c56576040517f08c379a0000000000000000000000000000000000000000000000000000000008152600401610c4d906125af565b60405180910390fd5b610c638286868403610da4565b60019250505092915050565b600080610c7a610d9c565b9050610c87818585610ff9565b600191505092915050565b6000603460008473ffffffffffffffffffffffffffffffffffffffff1673ffffffffffffffffffffffffffffffffffffffff16815260200190815260200160002060008373ffffffffffffffffffffffffffffffffffffffff1673ffffffffffffffffffffffffffffffffffffffff16815260200190815260200160002054905092915050565b610d21611442565b600073ffffffffffffffffffffffffffffffffffffffff168173ffffffffffffffffffffffffffffffffffffffff1603610d90576040517f08c379a0000000000000000000000000000000000000000000000000000000008152600401610d8790612641565b60405180910390fd5b610d99816114c0565b50565b600033905090565b600073ffffffffffffffffffffffffffffffffffffffff168373ffffffffffffffffffffffffffffffffffffffff1603610e13576040517f08c379a0000000000000000000000000000000000000000000000000000000008152600401610e0a906126d3565b60405180910390fd5b600073ffffffffffffffffffffffffffffffffffffffff168273ffffffffffffffffffffffffffffffffffffffff1603610e82576040517f08c379a0000000000000000000000000000000000000000000000000000000008152600401610e7990612765565b60405180910390fd5b80603460008573ffffffffffffffffffffffffffffffffffffffff1673ffffffffffffffffffffffffffffffffffffffff16815260200190815260200160002060008473ffffffffffffffffffffffffffffffffffffffff1673ffffffffffffffffffffffffffffffffffffffff168152602001908152602001600020819055508173ffffffffffffffffffffffffffffffffffffffff168373ffffffffffffffffffffffffffffffffffffffff167f8c5be1e5ebec7d5bd14f71427d1e84f3dd0314c0f7b2291e5b200ac8c7c3b92583604051610f609190611d11565b60405180910390a3505050565b6000610f798484610c92565b90507fffffffffffffffffffffffffffffffffffffffffffffffffffffffffffffffff8114610ff35781811015610fe5576040517f08c379a0000000000000000000000000000000000000000000000000000000008152600401610fdc906127d1565b60405180910390fd5b610ff28484848403610da4565b5b50505050565b600073ffffffffffffffffffffffffffffffffffffffff168373ffffffffffffffffffffffffffffffffffffffff1603611068576040517f08c379a000000000000000000000000000000000000000000000000000000000815260040161105f90612863565b60405180910390fd5b600073ffffffffffffffffffffffffffffffffffffffff168273ffffffffffffffffffffffffffffffffffffffff16036110d7576040517f08c379a00000000000000000000000000000000000000000000000000000000081526004016110ce906128f5565b60405180910390fd5b6110e28383836117b6565b6000603360008573ffffffffffffffffffffffffffffffffffffffff1673ffffffffffffffffffffffffffffffffffffffff16815260200190815260200160002054905081811015611169576040517f08c379a000000000000000000000000000000000000000000000000000000000815260040161116090612987565b60405180910390fd5b818103603360008673ffffffffffffffffffffffffffffffffffffffff1673ffffffffffffffffffffffffffffffffffffffff1681526020019081526020016000208190555081603360008573ffffffffffffffffffffffffffffffffffffffff1673ffffffffffffffffffffffffffffffffffffffff168152602001908152602001600020600082825401925050819055508273ffffffffffffffffffffffffffffffffffffffff168473ffffffffffffffffffffffffffffffffffffffff167fddf252ad1be2c89b69c2b068fc378daa952ba7f163c4a11628f55a4df523b3ef846040516112599190611d11565b60405180910390a361126c8484846117bb565b50505050565b60006112a07f360894a13ba1a3210667c828492db98dca3e2076cc3735a920a3ca505d382bbc60001b6117c0565b60000160009054906101000a900473ffffffffffffffffffffffffffffffffffffffff16905090565b6112d1611442565b50565b6113007f4910fdfa16fed3260ed0e7147f7cc6da11a60208b5b9406d12a635614ffd914360001b6117ca565b60000160009054906101000a900460ff16156113245761131f836117d4565b61143d565b8273ffffffffffffffffffffffffffffffffffffffff166352d1902d6040518163ffffffff1660e01b8152600401602060405180830381865afa92505050801561138c57506040513d601f19601f8201168201806040525081019061138991906129d3565b60015b6113cb576040517f08c379a00000000000000000000000000000000000000000000000000000000081526004016113c290612a72565b60405180910390fd5b7f360894a13ba1a3210667c828492db98dca3e2076cc3735a920a3ca505d382bbc60001b8114611430576040517f08c379a000000000000000000000000000000000000000000000000000000000815260040161142790612b04565b60405180910390fd5b5061143c83838361188d565b5b505050565b61144a610d9c565b73ffffffffffffffffffffffffffffffffffffffff16611468610b3c565b73ffffffffffffffffffffffffffffffffffffffff16146114be576040517f08c379a00000000000000000000000000000000000000000000000000000000081526004016114b590612b70565b60405180910390fd5b565b600060c960009054906101000a900473ffffffffffffffffffffffffffffffffffffffff1690508160c960006101000a81548173ffffffffffffffffffffffffffffffffffffffff021916908373ffffffffffffffffffffffffffffffffffffffff1602179055508173ffffffffffffffffffffffffffffffffffffffff168173ffffffffffffffffffffffffffffffffffffffff167f8be0079c531659141344cd1fd0a4f28419497f9722a3daafe3b4186f6b6457e060405160405180910390a35050565b6000808273ffffffffffffffffffffffffffffffffffffffff163b119050919050565b600060019054906101000a900460ff166115f8576040517f08c379a00000000000000000000000000000000000000000000000000000000081526004016115ef90612c02565b60405180910390fd5b61160282826118b9565b5050565b600060019054906101000a900460ff16611655576040517f08c379a000000000000000000000000000000000000000000000000000000000815260040161164c90612c02565b60405180910390fd5b61165d61192c565b565b600073ffffffffffffffffffffffffffffffffffffffff168273ffffffffffffffffffffffffffffffffffffffff16036116ce576040517f08c379a00000000000000000000000000000000000000000000000000000000081526004016116c590612c6e565b60405180910390fd5b6116da600083836117b6565b80603560008282546116ec91906121c5565b9250508190555080603360008473ffffffffffffffffffffffffffffffffffffffff1673ffffffffffffffffffffffffffffffffffffffff168152602001908152602001600020600082825401925050819055508173ffffffffffffffffffffffffffffffffffffffff16600073ffffffffffffffffffffffffffffffffffffffff167fddf252ad1be2c89b69c2b068fc378daa952ba7f163c4a11628f55a4df523b3ef8360405161179e9190611d11565b60405180910390a36117b2600083836117bb565b5050565b505050565b505050565b6000819050919050565b6000819050919050565b6117dd81611586565b61181c576040517f08c379a000000000000000000000000000000000000000000000000000000000815260040161181390612d00565b60405180910390fd5b806118497f360894a13ba1a3210667c828492db98dca3e2076cc3735a920a3ca505d382bbc60001b6117c0565b60000160006101000a81548173ffffffffffffffffffffffffffffffffffffffff021916908373ffffffffffffffffffffffffffffffffffffffff16021790555050565b6118968361198d565b6000825111806118a35750805b156118b4576118b283836119dc565b505b505050565b600060019054906101000a900460ff16611908576040517f08c379a00000000000000000000000000000000000000000000000000000000081526004016118ff90612c02565b60405180910390fd5b81603690816119179190612ec2565b5080603790816119279190612ec2565b505050565b600060019054906101000a900460ff1661197b576040517f08c379a000000000000000000000000000000000000000000000000000000000815260040161197290612c02565b60405180910390fd5b61198b611986610d9c565b6114c0565b565b611996816117d4565b8073ffffffffffffffffffffffffffffffffffffffff167fbc7cd75a20ee27fd9adebab32041f755214dbc6bffa90cc0225b39da2e5c2d3b60405160405180910390a250565b60606119e783611586565b611a26576040517f08c379a0000000000000000000000000000000000000000000000000000000008152600401611a1d90613006565b60405180910390fd5b6000808473ffffffffffffffffffffffffffffffffffffffff1684604051611a4e919061306d565b600060405180830381855af49150503d8060008114611a89576040519150601f19603f3d011682016040523d82523d6000602084013e611a8e565b606091505b5091509150611ab6828260405180606001604052806027815260200161308560279139611ac0565b9250505092915050565b60608315611ad057829050611adb565b611ada8383611ae2565b5b9392505050565b600082511115611af55781518083602001fd5b806040517f08c379a0000000000000000000000000000000000000000000000000000000008152600401611b299190611bc2565b60405180910390fd5b600081519050919050565b600082825260208201905092915050565b60005b83811015611b6c578082015181840152602081019050611b51565b60008484015250505050565b6000601f19601f8301169050919050565b6000611b9482611b32565b611b9e8185611b3d565b9350611bae818560208601611b4e565b611bb781611b78565b840191505092915050565b60006020820190508181036000830152611bdc8184611b89565b905092915050565b6000604051905090565b600080fd5b600080fd5b600073ffffffffffffffffffffffffffffffffffffffff82169050919050565b6000611c2382611bf8565b9050919050565b611c3381611c18565b8114611c3e57600080fd5b50565b600081359050611c5081611c2a565b92915050565b6000819050919050565b611c6981611c56565b8114611c7457600080fd5b50565b600081359050611c8681611c60565b92915050565b60008060408385031215611ca357611ca2611bee565b5b6000611cb185828601611c41565b9250506020611cc285828601611c77565b9150509250929050565b60008115159050919050565b611ce181611ccc565b82525050565b6000602082019050611cfc6000830184611cd8565b92915050565b611d0b81611c56565b82525050565b6000602082019050611d266000830184611d02565b92915050565b600080600060608486031215611d4557611d44611bee565b5b6000611d5386828701611c41565b9350506020611d6486828701611c41565b9250506040611d7586828701611c77565b9150509250925092565b600060ff82169050919050565b611d9581611d7f565b82525050565b6000602082019050611db06000830184611d8c565b92915050565b600060208284031215611dcc57611dcb611bee565b5b6000611dda84828501611c41565b91505092915050565b600080fd5b600080fd5b7f4e487b7100000000000000000000000000000000000000000000000000000000600052604160045260246000fd5b611e2582611b78565b810181811067ffffffffffffffff82111715611e4457611e43611ded565b5b80604052505050565b6000611e57611be4565b9050611e638282611e1c565b919050565b600067ffffffffffffffff821115611e8357611e82611ded565b5b611e8c82611b78565b9050602081019050919050565b82818337600083830152505050565b6000611ebb611eb684611e68565b611e4d565b905082815260208101848484011115611ed757611ed6611de8565b5b611ee2848285611e99565b509392505050565b600082601f830112611eff57611efe611de3565b5b8135611f0f848260208601611ea8565b91505092915050565b60008060408385031215611f2f57611f2e611bee565b5b6000611f3d85828601611c41565b925050602083013567ffffffffffffffff811115611f5e57611f5d611bf3565b5b611f6a85828601611eea565b9150509250929050565b6000819050919050565b611f8781611f74565b82525050565b6000602082019050611fa26000830184611f7e565b92915050565b611fb181611c18565b82525050565b6000602082019050611fcc6000830184611fa8565b92915050565b60008060408385031215611fe957611fe8611bee565b5b6000611ff785828601611c41565b925050602061200885828601611c41565b9150509250929050565b7f4e487b7100000000000000000000000000000000000000000000000000000000600052602260045260246000fd5b6000600282049050600182168061205957607f821691505b60208210810361206c5761206b612012565b5b50919050565b7f46756e6374696f6e206d7573742062652063616c6c6564207468726f7567682060008201527f64656c656761746563616c6c0000000000000000000000000000000000000000602082015250565b60006120ce602c83611b3d565b91506120d982612072565b604082019050919050565b600060208201905081810360008301526120fd816120c1565b9050919050565b7f46756e6374696f6e206d7573742062652063616c6c6564207468726f7567682060008201527f6163746976652070726f78790000000000000000000000000000000000000000602082015250565b6000612160602c83611b3d565b915061216b82612104565b604082019050919050565b6000602082019050818103600083015261218f81612153565b9050919050565b7f4e487b7100000000000000000000000000000000000000000000000000000000600052601160045260246000fd5b60006121d082611c56565b91506121db83611c56565b92508282019050808211156121f3576121f2612196565b5b92915050565b7f555550535570677261646561626c653a206d757374206e6f742062652063616c60008201527f6c6564207468726f7567682064656c656761746563616c6c0000000000000000602082015250565b6000612255603883611b3d565b9150612260826121f9565b604082019050919050565b6000602082019050818103600083015261228481612248565b9050919050565b7f496e697469616c697a61626c653a20636f6e747261637420697320616c72656160008201527f647920696e697469616c697a6564000000000000000000000000000000000000602082015250565b60006122e7602e83611b3d565b91506122f28261228b565b604082019050919050565b60006020820190508181036000830152612316816122da565b9050919050565b60008160011c9050919050565b6000808291508390505b6001851115612374578086048111156123505761234f612196565b5b600185161561235f5780820291505b808102905061236d8561231d565b9450612334565b94509492505050565b60008261238d5760019050612449565b8161239b5760009050612449565b81600181146123b157600281146123bb576123ea565b6001915050612449565b60ff8411156123cd576123cc612196565b5b8360020a9150848211156123e4576123e3612196565b5b50612449565b5060208310610133831016604e8410600b841016171561241f5782820a90508381111561241a57612419612196565b5b612449565b61242c848484600161232a565b9250905081840481111561244357612442612196565b5b81810290505b9392505050565b600061245b82611c56565b915061246683611d7f565b92506124937fffffffffffffffffffffffffffffffffffffffffffffffffffffffffffffffff848461237d565b905092915050565b60006124a682611c56565b91506124b183611c56565b92508282026124bf81611c56565b915082820484148315176124d6576124d5612196565b5b5092915050565b6000819050919050565b6000819050919050565b600061250c612507612502846124dd565b6124e7565b611d7f565b9050919050565b61251c816124f1565b82525050565b60006020820190506125376000830184612513565b92915050565b7f45524332303a2064656372656173656420616c6c6f77616e63652062656c6f7760008201527f207a65726f000000000000000000000000000000000000000000000000000000602082015250565b6000612599602583611b3d565b91506125a48261253d565b604082019050919050565b600060208201905081810360008301526125c88161258c565b9050919050565b7f4f776e61626c653a206e6577206f776e657220697320746865207a65726f206160008201527f6464726573730000000000000000000000000000000000000000000000000000602082015250565b600061262b602683611b3d565b9150612636826125cf565b604082019050919050565b6000602082019050818103600083015261265a8161261e565b9050919050565b7f45524332303a20617070726f76652066726f6d20746865207a65726f2061646460008201527f7265737300000000000000000000000000000000000000000000000000000000602082015250565b60006126bd602483611b3d565b91506126c882612661565b604082019050919050565b600060208201905081810360008301526126ec816126b0565b9050919050565b7f45524332303a20617070726f766520746f20746865207a65726f20616464726560008201527f7373000000000000000000000000000000000000000000000000000000000000602082015250565b600061274f602283611b3d565b915061275a826126f3565b604082019050919050565b6000602082019050818103600083015261277e81612742565b9050919050565b7f45524332303a20696e73756666696369656e7420616c6c6f77616e6365000000600082015250565b60006127bb601d83611b3d565b91506127c682612785565b602082019050919050565b600060208201905081810360008301526127ea816127ae565b9050919050565b7f45524332303a207472616e736665722066726f6d20746865207a65726f20616460008201527f6472657373000000000000000000000000000000000000000000000000000000602082015250565b600061284d602583611b3d565b9150612858826127f1565b604082019050919050565b6000602082019050818103600083015261287c81612840565b9050919050565b7f45524332303a207472616e7366657220746f20746865207a65726f206164647260008201527f6573730000000000000000000000000000000000000000000000000000000000602082015250565b60006128df602383611b3d565b91506128ea82612883565b604082019050919050565b6000602082019050818103600083015261290e816128d2565b9050919050565b7f45524332303a207472616e7366657220616d6f756e742065786365656473206260008201527f616c616e63650000000000000000000000000000000000000000000000000000602082015250565b6000612971602683611b3d565b915061297c82612915565b604082019050919050565b600060208201905081810360008301526129a081612964565b9050919050565b6129b081611f74565b81146129bb57600080fd5b50565b6000815190506129cd816129a7565b92915050565b6000602082840312156129e9576129e8611bee565b5b60006129f7848285016129be565b91505092915050565b7f45524331393637557067726164653a206e657720696d706c656d656e7461746960008201527f6f6e206973206e6f742055555053000000000000000000000000000000000000602082015250565b6000612a5c602e83611b3d565b9150612a6782612a00565b604082019050919050565b60006020820190508181036000830152612a8b81612a4f565b9050919050565b7f45524331393637557067726164653a20756e737570706f727465642070726f7860008201527f6961626c65555549440000000000000000000000000000000000000000000000602082015250565b6000612aee602983611b3d565b9150612af982612a92565b604082019050919050565b60006020820190508181036000830152612b1d81612ae1565b9050919050565b7f4f776e61626c653a2063616c6c6572206973206e6f7420746865206f776e6572600082015250565b6000612b5a602083611b3d565b9150612b6582612b24565b602082019050919050565b60006020820190508181036000830152612b8981612b4d565b9050919050565b7f496e697469616c697a61626c653a20636f6e7472616374206973206e6f74206960008201527f6e697469616c697a696e67000000000000000000000000000000000000000000602082015250565b6000612bec602b83611b3d565b9150612bf782612b90565b604082019050919050565b60006020820190508181036000830152612c1b81612bdf565b9050919050565b7f45524332303a206d696e7420746f20746865207a65726f206164647265737300600082015250565b6000612c58601f83611b3d565b9150612c6382612c22565b602082019050919050565b60006020820190508181036000830152612c8781612c4b565b9050919050565b7f455243313936373a206e657720696d706c656d656e746174696f6e206973206e60008201527f6f74206120636f6e747261637400000000000000000000000000000000000000602082015250565b6000612cea602d83611b3d565b9150612cf582612c8e565b604082019050919050565b60006020820190508181036000830152612d1981612cdd565b9050919050565b60008190508160005260206000209050919050565b60006020601f8301049050919050565b600082821b905092915050565b600060088302612d827fffffffffffffffffffffffffffffffffffffffffffffffffffffffffffffffff82612d45565b612d8c8683612d45565b95508019841693508086168417925050509392505050565b6000612dbf612dba612db584611c56565b6124e7565b611c56565b9050919050565b6000819050919050565b612dd983612da4565b612ded612de582612dc6565b848454612d52565b825550505050565b600090565b612e02612df5565b612e0d818484612dd0565b505050565b5b81811015612e3157612e26600082612dfa565b600181019050612e13565b5050565b601f821115612e7657612e4781612d20565b612e5084612d35565b81016020851015612e5f578190505b612e73612e6b85612d35565b830182612e12565b50505b505050565b600082821c905092915050565b6000612e9960001984600802612e7b565b1980831691505092915050565b6000612eb28383612e88565b9150826002028217905092915050565b612ecb82611b32565b67ffffffffffffffff811115612ee457612ee3611ded565b5b612eee8254612041565b612ef9828285612e35565b600060209050601f831160018114612f2c5760008415612f1a578287015190505b612f248582612ea6565b865550612f8c565b601f198416612f3a86612d20565b60005b82811015612f6257848901518255600182019150602085019450602081019050612f3d565b86831015612f7f5784890151612f7b601f891682612e88565b8355505b6001600288020188555050505b505050505050565b7f416464726573733a2064656c65676174652063616c6c20746f206e6f6e2d636f60008201527f6e74726163740000000000000000000000000000000000000000000000000000602082015250565b6000612ff0602683611b3d565b9150612ffb82612f94565b604082019050919050565b6000602082019050818103600083015261301f81612fe3565b9050919050565b600081519050919050565b600081905092915050565b600061304782613026565b6130518185613031565b9350613061818560208601611b4e565b80840191505092915050565b6000613079828461303c565b91508190509291505056fe416464726573733a206c6f772d6c6576656c2064656c65676174652063616c6c206661696c6564a2646970667358221220049221e1a61fb1a57ba6d258e8aff9677dc64bcec4c437fba71d7c6bcc0ac81564736f6c63430008110033",
  "linkReferences": {},
  "deployedLinkReferences": {}
}