{
  "_format": "hh-sol-artifact-1",
  "contractName": "PLUTOV2",
  "sourceName": "contracts/Pluto.sol",
  "abi": [
    {
      "anonymous": false,
      "inputs": [
        {
          "indexed": false,
          "internalType": "address",
          "name": "previousAdmin",
          "type": "address"
        },
        {
          "indexed": false,
          "internalType": "address",
          "name": "newAdmin",
          "type": "address"
        }
      ],
      "name": "AdminChanged",
      "type": "event"
    },
    {
      "anonymous": false,
      "inputs": [
        {
          "indexed": true,
          "internalType": "address",
          "name": "owner",
          "type": "address"
        },
        {
          "indexed": true,
          "internalType": "address",
          "name": "spender",
          "type": "address"
        },
        {
          "indexed": false,
          "internalType": "uint256",
          "name": "value",
          "type": "uint256"
        }
      ],
      "name": "Approval",
      "type": "event"
    },
    {
      "anonymous": false,
      "inputs": [
        {
          "indexed": true,
          "internalType": "address",
          "name": "beacon",
          "type": "address"
        }
      ],
      "name": "BeaconUpgraded",
      "type": "event"
    },
    {
      "anonymous": false,
      "inputs": [
        {
          "indexed": false,
          "internalType": "uint8",
          "name": "version",
          "type": "uint8"
        }
      ],
      "name": "Initialized",
      "type": "event"
    },
    {
      "anonymous": false,
      "inputs": [
        {
          "indexed": true,
          "internalType": "address",
          "name": "previousOwner",
          "type": "address"
        },
        {
          "indexed": true,
          "internalType": "address",
          "name": "newOwner",
          "type": "address"
        }
      ],
      "name": "OwnershipTransferred",
      "type": "event"
    },
    {
      "anonymous": false,
      "inputs": [
        {
          "indexed": true,
          "internalType": "address",
          "name": "from",
          "type": "address"
        },
        {
          "indexed": true,
          "internalType": "address",
          "name": "to",
          "type": "address"
        },
        {
          "indexed": false,
          "internalType": "uint256",
          "name": "value",
          "type": "uint256"
        }
      ],
      "name": "Transfer",
      "type": "event"
    },
    {
      "anonymous": false,
      "inputs": [
        {
          "indexed": true,
          "internalType": "address",
          "name": "implementation",
          "type": "address"
        }
      ],
      "name": "Upgraded",
      "type": "event"
    },
    {
      "inputs": [
        {
          "internalType": "address",
          "name": "owner",
          "type": "address"
        },
        {
          "internalType": "address",
          "name": "spender",
          "type": "address"
        }
      ],
      "name": "allowance",
      "outputs": [
        {
          "internalType": "uint256",
          "name": "",
          "type": "uint256"
        }
      ],
      "stateMutability": "view",
      "type": "function"
    },
    {
      "inputs": [
        {
          "internalType": "address",
          "name": "spender",
          "type": "address"
        },
        {
          "internalType": "uint256",
          "name": "amount",
          "type": "uint256"
        }
      ],
      "name": "approve",
      "outputs": [
        {
          "internalType": "bool",
          "name": "",
          "type": "bool"
        }
      ],
      "stateMutability": "nonpayable",
      "type": "function"
    },
    {
      "inputs": [
        {
          "internalType": "address",
          "name": "account",
          "type": "address"
        }
      ],
      "name": "balanceOf",
      "outputs": [
        {
          "internalType": "uint256",
          "name": "",
          "type": "uint256"
        }
      ],
      "stateMutability": "view",
      "type": "function"
    },
    {
      "inputs": [],
      "name": "decimals",
      "outputs": [
        {
          "internalType": "uint8",
          "name": "",
          "type": "uint8"
        }
      ],
      "stateMutability": "view",
      "type": "function"
    },
    {
      "inputs": [
        {
          "internalType": "address",
          "name": "spender",
          "type": "address"
        },
        {
          "internalType": "uint256",
          "name": "subtractedValue",
          "type": "uint256"
        }
      ],
      "name": "decreaseAllowance",
      "outputs": [
        {
          "internalType": "bool",
          "name": "",
          "type": "bool"
        }
      ],
      "stateMutability": "nonpayable",
      "type": "function"
    },
    {
      "inputs": [
        {
          "internalType": "address",
          "name": "spender",
          "type": "address"
        },
        {
          "internalType": "uint256",
          "name": "addedValue",
          "type": "uint256"
        }
      ],
      "name": "increaseAllowance",
      "outputs": [
        {
          "internalType": "bool",
          "name": "",
          "type": "bool"
        }
      ],
      "stateMutability": "nonpayable",
      "type": "function"
    },
    {
      "inputs": [],
      "name": "initialize",
      "outputs": [],
      "stateMutability": "nonpayable",
      "type": "function"
    },
    {
      "inputs": [],
      "name": "name",
      "outputs": [
        {
          "internalType": "string",
          "name": "",
          "type": "string"
        }
      ],
      "stateMutability": "view",
      "type": "function"
    },
    {
      "inputs": [],
      "name": "owner",
      "outputs": [
        {
          "internalType": "address",
          "name": "",
          "type": "address"
        }
      ],
      "stateMutability": "view",
      "type": "function"
    },
    {
      "inputs": [],
      "name": "proxiableUUID",
      "outputs": [
        {
          "internalType": "bytes32",
          "name": "",
          "type": "bytes32"
        }
      ],
      "stateMutability": "view",
      "type": "function"
    },
    {
      "inputs": [],
      "name": "renounceOwnership",
      "outputs": [],
      "stateMutability": "nonpayable",
      "type": "function"
    },
    {
      "inputs": [],
      "name": "symbol",
      "outputs": [
        {
          "internalType": "string",
          "name": "",
          "type": "string"
        }
      ],
      "stateMutability": "view",
      "type": "function"
    },
    {
      "inputs": [],
      "name": "totalSupply",
      "outputs": [
        {
          "internalType": "uint256",
          "name": "",
          "type": "uint256"
        }
      ],
      "stateMutability": "view",
      "type": "function"
    },
    {
      "inputs": [
        {
          "internalType": "address",
          "name": "to",
          "type": "address"
        },
        {
          "internalType": "uint256",
          "name": "amount",
          "type": "uint256"
        }
      ],
      "name": "transfer",
      "outputs": [
        {
          "internalType": "bool",
          "name": "",
          "type": "bool"
        }
      ],
      "stateMutability": "nonpayable",
      "type": "function"
    },
    {
      "inputs": [
        {
          "internalType": "address",
          "name": "from",
          "type": "address"
        },
        {
          "internalType": "address",
          "name": "to",
          "type": "address"
        },
        {
          "internalType": "uint256",
          "name": "amount",
          "type": "uint256"
        }
      ],
      "name": "transferFrom",
      "outputs": [
        {
          "internalType": "bool",
          "name": "",
          "type": "bool"
        }
      ],
      "stateMutability": "nonpayable",
      "type": "function"
    },
    {
      "inputs": [
        {
          "internalType": "address",
          "name": "newOwner",
          "type": "address"
        }
      ],
      "name": "transferOwnership",
      "outputs": [],
      "stateMutability": "nonpayable",
      "type": "function"
    },
    {
      "inputs": [
        {
          "internalType": "address",
          "name": "newImplementation",
          "type": "address"
        }
      ],
      "name": "upgradeTo",
      "outputs": [],
      "stateMutability": "nonpayable",
      "type": "function"
    },
    {
      "inputs": [
        {
          "internalType": "address",
          "name": "newImplementation",
          "type": "address"
        },
        {
          "internalType": "bytes",
          "name": "data",
          "type": "bytes"
        }
      ],
      "name": "upgradeToAndCall",
      "outputs": [],
      "stateMutability": "payable",
      "type": "function"
    },
    {
      "inputs": [],
      "name": "version",
      "outputs": [
        {
          "internalType": "string",
          "name": "",
          "type": "string"
        }
      ],
      "stateMutability": "pure",
      "type": "function"
    }
  ],
  "bytecode": "0x60a06040523073ffffffffffffffffffffffffffffffffffffffff1660809073ffffffffffffffffffffffffffffffffffffffff1681525034801561004357600080fd5b5060805161315461007b600039600081816105860152818161061401528181610745015281816107d3015261088301526131546000f3fe6080604052600436106101145760003560e01c806354fd4d50116100a057806395d89b411161006457806395d89b4114610382578063a457c2d7146103ad578063a9059cbb146103ea578063dd62ed3e14610427578063f2fde38b1461046457610114565b806354fd4d50146102c157806370a08231146102ec578063715018a6146103295780638129fc1c146103405780638da5cb5b1461035757610114565b8063313ce567116100e7578063313ce567146101e95780633659cfe614610214578063395093511461023d5780634f1ef2861461027a57806352d1902d1461029657610114565b806306fdde0314610119578063095ea7b31461014457806318160ddd1461018157806323b872dd146101ac575b600080fd5b34801561012557600080fd5b5061012e61048d565b60405161013b9190611c35565b60405180910390f35b34801561015057600080fd5b5061016b60048036038101906101669190611cff565b61051f565b6040516101789190611d5a565b60405180910390f35b34801561018d57600080fd5b50610196610542565b6040516101a39190611d84565b60405180910390f35b3480156101b857600080fd5b506101d360048036038101906101ce9190611d9f565b61054c565b6040516101e09190611d5a565b60405180910390f35b3480156101f557600080fd5b506101fe61057b565b60405161020b9190611e0e565b60405180910390f35b34801561022057600080fd5b5061023b60048036038101906102369190611e29565b610584565b005b34801561024957600080fd5b50610264600480360381019061025f9190611cff565b61070c565b6040516102719190611d5a565b60405180910390f35b610294600480360381019061028f9190611f8b565b610743565b005b3480156102a257600080fd5b506102ab61087f565b6040516102b89190612000565b60405180910390f35b3480156102cd57600080fd5b506102d6610938565b6040516102e39190611c35565b60405180910390f35b3480156102f857600080fd5b50610313600480360381019061030e9190611e29565b610975565b6040516103209190611d84565b60405180910390f35b34801561033557600080fd5b5061033e6109be565b005b34801561034c57600080fd5b506103556109d2565b005b34801561036357600080fd5b5061036c610baf565b604051610379919061202a565b60405180910390f35b34801561038e57600080fd5b50610397610bd9565b6040516103a49190611c35565b60405180910390f35b3480156103b957600080fd5b506103d460048036038101906103cf9190611cff565b610c6b565b6040516103e19190611d5a565b60405180910390f35b3480156103f657600080fd5b50610411600480360381019061040c9190611cff565b610ce2565b60405161041e9190611d5a565b60405180910390f35b34801561043357600080fd5b5061044e60048036038101906104499190612045565b610d05565b60405161045b9190611d84565b60405180910390f35b34801561047057600080fd5b5061048b60048036038101906104869190611e29565b610d8c565b005b60606036805461049c906120b4565b80601f01602080910402602001604051908101604052809291908181526020018280546104c8906120b4565b80156105155780601f106104ea57610100808354040283529160200191610515565b820191906000526020600020905b8154815290600101906020018083116104f857829003601f168201915b5050505050905090565b60008061052a610e0f565b9050610537818585610e17565b600191505092915050565b6000603554905090565b600080610557610e0f565b9050610564858285610fe0565b61056f85858561106c565b60019150509392505050565b60006012905090565b7f000000000000000000000000000000000000000000000000000000000000000073ffffffffffffffffffffffffffffffffffffffff163073ffffffffffffffffffffffffffffffffffffffff1603610612576040517f08c379a000000000000000000000000000000000000000000000000000000000815260040161060990612157565b60405180910390fd5b7f000000000000000000000000000000000000000000000000000000000000000073ffffffffffffffffffffffffffffffffffffffff166106516112e5565b73ffffffffffffffffffffffffffffffffffffffff16146106a7576040517f08c379a000000000000000000000000000000000000000000000000000000000815260040161069e906121e9565b60405180910390fd5b6106b08161133c565b61070981600067ffffffffffffffff8111156106cf576106ce611e60565b5b6040519080825280601f01601f1916602001820160405280156107015781602001600182028036833780820191505090505b506000611347565b50565b600080610717610e0f565b90506107388185856107298589610d05565b6107339190612238565b610e17565b600191505092915050565b7f000000000000000000000000000000000000000000000000000000000000000073ffffffffffffffffffffffffffffffffffffffff163073ffffffffffffffffffffffffffffffffffffffff16036107d1576040517f08c379a00000000000000000000000000000000000000000000000000000000081526004016107c890612157565b60405180910390fd5b7f000000000000000000000000000000000000000000000000000000000000000073ffffffffffffffffffffffffffffffffffffffff166108106112e5565b73ffffffffffffffffffffffffffffffffffffffff1614610866576040517f08c379a000000000000000000000000000000000000000000000000000000000815260040161085d906121e9565b60405180910390fd5b61086f8261133c565b61087b82826001611347565b5050565b60007f000000000000000000000000000000000000000000000000000000000000000073ffffffffffffffffffffffffffffffffffffffff163073ffffffffffffffffffffffffffffffffffffffff161461090f576040517f08c379a0000000000000000000000000000000000000000000000000000000008152600401610906906122de565b60405180910390fd5b7f360894a13ba1a3210667c828492db98dca3e2076cc3735a920a3ca505d382bbc60001b905090565b60606040518060400160405280600381526020017f5632210000000000000000000000000000000000000000000000000000000000815250905090565b6000603360008373ffffffffffffffffffffffffffffffffffffffff1673ffffffffffffffffffffffffffffffffffffffff168152602001908152602001600020549050919050565b6109c66114b5565b6109d06000611533565b565b60008060019054906101000a900460ff16159050808015610a035750600160008054906101000a900460ff1660ff16105b80610a305750610a12306115f9565b158015610a2f5750600160008054906101000a900460ff1660ff16145b5b610a6f576040517f08c379a0000000000000000000000000000000000000000000000000000000008152600401610a6690612370565b60405180910390fd5b60016000806101000a81548160ff021916908360ff1602179055508015610aac576001600060016101000a81548160ff0219169083151502179055505b610b206040518060400160405280600581526020017f504c55544f0000000000000000000000000000000000000000000000000000008152506040518060400160405280600381526020017f504c54000000000000000000000000000000000000000000000000000000000081525061161c565b610b28611679565b610b5333610b3461057b565b600a610b4091906124c3565b62989680610b4e919061250e565b6116d2565b8015610bac5760008060016101000a81548160ff0219169083151502179055507f7f26b83ff96e1f2b6a682f133852f6798a09c465da95921460cefb38474024986001604051610ba39190612595565b60405180910390a15b50565b600060c960009054906101000a900473ffffffffffffffffffffffffffffffffffffffff16905090565b606060378054610be8906120b4565b80601f0160208091040260200160405190810160405280929190818152602001828054610c14906120b4565b8015610c615780601f10610c3657610100808354040283529160200191610c61565b820191906000526020600020905b815481529060010190602001808311610c4457829003601f168201915b5050505050905090565b600080610c76610e0f565b90506000610c848286610d05565b905083811015610cc9576040517f08c379a0000000000000000000000000000000000000000000000000000000008152600401610cc090612622565b60405180910390fd5b610cd68286868403610e17565b60019250505092915050565b600080610ced610e0f565b9050610cfa81858561106c565b600191505092915050565b6000603460008473ffffffffffffffffffffffffffffffffffffffff1673ffffffffffffffffffffffffffffffffffffffff16815260200190815260200160002060008373ffffffffffffffffffffffffffffffffffffffff1673ffffffffffffffffffffffffffffffffffffffff16815260200190815260200160002054905092915050565b610d946114b5565b600073ffffffffffffffffffffffffffffffffffffffff168173ffffffffffffffffffffffffffffffffffffffff1603610e03576040517f08c379a0000000000000000000000000000000000000000000000000000000008152600401610dfa906126b4565b60405180910390fd5b610e0c81611533565b50565b600033905090565b600073ffffffffffffffffffffffffffffffffffffffff168373ffffffffffffffffffffffffffffffffffffffff1603610e86576040517f08c379a0000000000000000000000000000000000000000000000000000000008152600401610e7d90612746565b60405180910390fd5b600073ffffffffffffffffffffffffffffffffffffffff168273ffffffffffffffffffffffffffffffffffffffff1603610ef5576040517f08c379a0000000000000000000000000000000000000000000000000000000008152600401610eec906127d8565b60405180910390fd5b80603460008573ffffffffffffffffffffffffffffffffffffffff1673ffffffffffffffffffffffffffffffffffffffff16815260200190815260200160002060008473ffffffffffffffffffffffffffffffffffffffff1673ffffffffffffffffffffffffffffffffffffffff168152602001908152602001600020819055508173ffffffffffffffffffffffffffffffffffffffff168373ffffffffffffffffffffffffffffffffffffffff167f8c5be1e5ebec7d5bd14f71427d1e84f3dd0314c0f7b2291e5b200ac8c7c3b92583604051610fd39190611d84565b60405180910390a3505050565b6000610fec8484610d05565b90507fffffffffffffffffffffffffffffffffffffffffffffffffffffffffffffffff81146110665781811015611058576040517f08c379a000000000000000000000000000000000000000000000000000000000815260040161104f90612844565b60405180910390fd5b6110658484848403610e17565b5b50505050565b600073ffffffffffffffffffffffffffffffffffffffff168373ffffffffffffffffffffffffffffffffffffffff16036110db576040517f08c379a00000000000000000000000000000000000000000000000000000000081526004016110d2906128d6565b60405180910390fd5b600073ffffffffffffffffffffffffffffffffffffffff168273ffffffffffffffffffffffffffffffffffffffff160361114a576040517f08c379a000000000000000000000000000000000000000000000000000000000815260040161114190612968565b60405180910390fd5b611155838383611829565b6000603360008573ffffffffffffffffffffffffffffffffffffffff1673ffffffffffffffffffffffffffffffffffffffff168152602001908152602001600020549050818110156111dc576040517f08c379a00000000000000000000000000000000000000000000000000000000081526004016111d3906129fa565b60405180910390fd5b818103603360008673ffffffffffffffffffffffffffffffffffffffff1673ffffffffffffffffffffffffffffffffffffffff1681526020019081526020016000208190555081603360008573ffffffffffffffffffffffffffffffffffffffff1673ffffffffffffffffffffffffffffffffffffffff168152602001908152602001600020600082825401925050819055508273ffffffffffffffffffffffffffffffffffffffff168473ffffffffffffffffffffffffffffffffffffffff167fddf252ad1be2c89b69c2b068fc378daa952ba7f163c4a11628f55a4df523b3ef846040516112cc9190611d84565b60405180910390a36112df84848461182e565b50505050565b60006113137f360894a13ba1a3210667c828492db98dca3e2076cc3735a920a3ca505d382bbc60001b611833565b60000160009054906101000a900473ffffffffffffffffffffffffffffffffffffffff16905090565b6113446114b5565b50565b6113737f4910fdfa16fed3260ed0e7147f7cc6da11a60208b5b9406d12a635614ffd914360001b61183d565b60000160009054906101000a900460ff16156113975761139283611847565b6114b0565b8273ffffffffffffffffffffffffffffffffffffffff166352d1902d6040518163ffffffff1660e01b8152600401602060405180830381865afa9250505080156113ff57506040513d601f19601f820116820180604052508101906113fc9190612a46565b60015b61143e576040517f08c379a000000000000000000000000000000000000000000000000000000000815260040161143590612ae5565b60405180910390fd5b7f360894a13ba1a3210667c828492db98dca3e2076cc3735a920a3ca505d382bbc60001b81146114a3576040517f08c379a000000000000000000000000000000000000000000000000000000000815260040161149a90612b77565b60405180910390fd5b506114af838383611900565b5b505050565b6114bd610e0f565b73ffffffffffffffffffffffffffffffffffffffff166114db610baf565b73ffffffffffffffffffffffffffffffffffffffff1614611531576040517f08c379a000000000000000000000000000000000000000000000000000000000815260040161152890612be3565b60405180910390fd5b565b600060c960009054906101000a900473ffffffffffffffffffffffffffffffffffffffff1690508160c960006101000a81548173ffffffffffffffffffffffffffffffffffffffff021916908373ffffffffffffffffffffffffffffffffffffffff1602179055508173ffffffffffffffffffffffffffffffffffffffff168173ffffffffffffffffffffffffffffffffffffffff167f8be0079c531659141344cd1fd0a4f28419497f9722a3daafe3b4186f6b6457e060405160405180910390a35050565b6000808273ffffffffffffffffffffffffffffffffffffffff163b119050919050565b600060019054906101000a900460ff1661166b576040517f08c379a000000000000000000000000000000000000000000000000000000000815260040161166290612c75565b60405180910390fd5b611675828261192c565b5050565b600060019054906101000a900460ff166116c8576040517f08c379a00000000000000000000000000000000000000000000000000000000081526004016116bf90612c75565b60405180910390fd5b6116d061199f565b565b600073ffffffffffffffffffffffffffffffffffffffff168273ffffffffffffffffffffffffffffffffffffffff1603611741576040517f08c379a000000000000000000000000000000000000000000000000000000000815260040161173890612ce1565b60405180910390fd5b61174d60008383611829565b806035600082825461175f9190612238565b9250508190555080603360008473ffffffffffffffffffffffffffffffffffffffff1673ffffffffffffffffffffffffffffffffffffffff168152602001908152602001600020600082825401925050819055508173ffffffffffffffffffffffffffffffffffffffff16600073ffffffffffffffffffffffffffffffffffffffff167fddf252ad1be2c89b69c2b068fc378daa952ba7f163c4a11628f55a4df523b3ef836040516118119190611d84565b60405180910390a36118256000838361182e565b5050565b505050565b505050565b6000819050919050565b6000819050919050565b611850816115f9565b61188f576040517f08c379a000000000000000000000000000000000000000000000000000000000815260040161188690612d73565b60405180910390fd5b806118bc7f360894a13ba1a3210667c828492db98dca3e2076cc3735a920a3ca505d382bbc60001b611833565b60000160006101000a81548173ffffffffffffffffffffffffffffffffffffffff021916908373ffffffffffffffffffffffffffffffffffffffff16021790555050565b61190983611a00565b6000825111806119165750805b15611927576119258383611a4f565b505b505050565b600060019054906101000a900460ff1661197b576040517f08c379a000000000000000000000000000000000000000000000000000000000815260040161197290612c75565b60405180910390fd5b816036908161198a9190612f35565b50806037908161199a9190612f35565b505050565b600060019054906101000a900460ff166119ee576040517f08c379a00000000000000000000000000000000000000000000000000000000081526004016119e590612c75565b60405180910390fd5b6119fe6119f9610e0f565b611533565b565b611a0981611847565b8073ffffffffffffffffffffffffffffffffffffffff167fbc7cd75a20ee27fd9adebab32041f755214dbc6bffa90cc0225b39da2e5c2d3b60405160405180910390a250565b6060611a5a836115f9565b611a99576040517f08c379a0000000000000000000000000000000000000000000000000000000008152600401611a9090613079565b60405180910390fd5b6000808473ffffffffffffffffffffffffffffffffffffffff1684604051611ac191906130e0565b600060405180830381855af49150503d8060008114611afc576040519150601f19603f3d011682016040523d82523d6000602084013e611b01565b606091505b5091509150611b2982826040518060600160405280602781526020016130f860279139611b33565b9250505092915050565b60608315611b4357829050611b4e565b611b4d8383611b55565b5b9392505050565b600082511115611b685781518083602001fd5b806040517f08c379a0000000000000000000000000000000000000000000000000000000008152600401611b9c9190611c35565b60405180910390fd5b600081519050919050565b600082825260208201905092915050565b60005b83811015611bdf578082015181840152602081019050611bc4565b60008484015250505050565b6000601f19601f8301169050919050565b6000611c0782611ba5565b611c118185611bb0565b9350611c21818560208601611bc1565b611c2a81611beb565b840191505092915050565b60006020820190508181036000830152611c4f8184611bfc565b905092915050565b6000604051905090565b600080fd5b600080fd5b600073ffffffffffffffffffffffffffffffffffffffff82169050919050565b6000611c9682611c6b565b9050919050565b611ca681611c8b565b8114611cb157600080fd5b50565b600081359050611cc381611c9d565b92915050565b6000819050919050565b611cdc81611cc9565b8114611ce757600080fd5b50565b600081359050611cf981611cd3565b92915050565b60008060408385031215611d1657611d15611c61565b5b6000611d2485828601611cb4565b9250506020611d3585828601611cea565b9150509250929050565b60008115159050919050565b611d5481611d3f565b82525050565b6000602082019050611d6f6000830184611d4b565b92915050565b611d7e81611cc9565b82525050565b6000602082019050611d996000830184611d75565b92915050565b600080600060608486031215611db857611db7611c61565b5b6000611dc686828701611cb4565b9350506020611dd786828701611cb4565b9250506040611de886828701611cea565b9150509250925092565b600060ff82169050919050565b611e0881611df2565b82525050565b6000602082019050611e236000830184611dff565b92915050565b600060208284031215611e3f57611e3e611c61565b5b6000611e4d84828501611cb4565b91505092915050565b600080fd5b600080fd5b7f4e487b7100000000000000000000000000000000000000000000000000000000600052604160045260246000fd5b611e9882611beb565b810181811067ffffffffffffffff82111715611eb757611eb6611e60565b5b80604052505050565b6000611eca611c57565b9050611ed68282611e8f565b919050565b600067ffffffffffffffff821115611ef657611ef5611e60565b5b611eff82611beb565b9050602081019050919050565b82818337600083830152505050565b6000611f2e611f2984611edb565b611ec0565b905082815260208101848484011115611f4a57611f49611e5b565b5b611f55848285611f0c565b509392505050565b600082601f830112611f7257611f71611e56565b5b8135611f82848260208601611f1b565b91505092915050565b60008060408385031215611fa257611fa1611c61565b5b6000611fb085828601611cb4565b925050602083013567ffffffffffffffff811115611fd157611fd0611c66565b5b611fdd85828601611f5d565b9150509250929050565b6000819050919050565b611ffa81611fe7565b82525050565b60006020820190506120156000830184611ff1565b92915050565b61202481611c8b565b82525050565b600060208201905061203f600083018461201b565b92915050565b6000806040838503121561205c5761205b611c61565b5b600061206a85828601611cb4565b925050602061207b85828601611cb4565b9150509250929050565b7f4e487b7100000000000000000000000000000000000000000000000000000000600052602260045260246000fd5b600060028204905060018216806120cc57607f821691505b6020821081036120df576120de612085565b5b50919050565b7f46756e6374696f6e206d7573742062652063616c6c6564207468726f7567682060008201527f64656c656761746563616c6c0000000000000000000000000000000000000000602082015250565b6000612141602c83611bb0565b915061214c826120e5565b604082019050919050565b6000602082019050818103600083015261217081612134565b9050919050565b7f46756e6374696f6e206d7573742062652063616c6c6564207468726f7567682060008201527f6163746976652070726f78790000000000000000000000000000000000000000602082015250565b60006121d3602c83611bb0565b91506121de82612177565b604082019050919050565b60006020820190508181036000830152612202816121c6565b9050919050565b7f4e487b7100000000000000000000000000000000000000000000000000000000600052601160045260246000fd5b600061224382611cc9565b915061224e83611cc9565b925082820190508082111561226657612265612209565b5b92915050565b7f555550535570677261646561626c653a206d757374206e6f742062652063616c60008201527f6c6564207468726f7567682064656c656761746563616c6c0000000000000000602082015250565b60006122c8603883611bb0565b91506122d38261226c565b604082019050919050565b600060208201905081810360008301526122f7816122bb565b9050919050565b7f496e697469616c697a61626c653a20636f6e747261637420697320616c72656160008201527f647920696e697469616c697a6564000000000000000000000000000000000000602082015250565b600061235a602e83611bb0565b9150612365826122fe565b604082019050919050565b600060208201905081810360008301526123898161234d565b9050919050565b60008160011c9050919050565b6000808291508390505b60018511156123e7578086048111156123c3576123c2612209565b5b60018516156123d25780820291505b80810290506123e085612390565b94506123a7565b94509492505050565b60008261240057600190506124bc565b8161240e57600090506124bc565b8160018114612424576002811461242e5761245d565b60019150506124bc565b60ff8411156124405761243f612209565b5b8360020a91508482111561245757612456612209565b5b506124bc565b5060208310610133831016604e8410600b84101617156124925782820a90508381111561248d5761248c612209565b5b6124bc565b61249f848484600161239d565b925090508184048111156124b6576124b5612209565b5b81810290505b9392505050565b60006124ce82611cc9565b91506124d983611df2565b92506125067fffffffffffffffffffffffffffffffffffffffffffffffffffffffffffffffff84846123f0565b905092915050565b600061251982611cc9565b915061252483611cc9565b925082820261253281611cc9565b9150828204841483151761254957612548612209565b5b5092915050565b6000819050919050565b6000819050919050565b600061257f61257a61257584612550565b61255a565b611df2565b9050919050565b61258f81612564565b82525050565b60006020820190506125aa6000830184612586565b92915050565b7f45524332303a2064656372656173656420616c6c6f77616e63652062656c6f7760008201527f207a65726f000000000000000000000000000000000000000000000000000000602082015250565b600061260c602583611bb0565b9150612617826125b0565b604082019050919050565b6000602082019050818103600083015261263b816125ff565b9050919050565b7f4f776e61626c653a206e6577206f776e657220697320746865207a65726f206160008201527f6464726573730000000000000000000000000000000000000000000000000000602082015250565b600061269e602683611bb0565b91506126a982612642565b604082019050919050565b600060208201905081810360008301526126cd81612691565b9050919050565b7f45524332303a20617070726f76652066726f6d20746865207a65726f2061646460008201527f7265737300000000000000000000000000000000000000000000000000000000602082015250565b6000612730602483611bb0565b915061273b826126d4565b604082019050919050565b6000602082019050818103600083015261275f81612723565b9050919050565b7f45524332303a20617070726f766520746f20746865207a65726f20616464726560008201527f7373000000000000000000000000000000000000000000000000000000000000602082015250565b60006127c2602283611bb0565b91506127cd82612766565b604082019050919050565b600060208201905081810360008301526127f1816127b5565b9050919050565b7f45524332303a20696e73756666696369656e7420616c6c6f77616e6365000000600082015250565b600061282e601d83611bb0565b9150612839826127f8565b602082019050919050565b6000602082019050818103600083015261285d81612821565b9050919050565b7f45524332303a207472616e736665722066726f6d20746865207a65726f20616460008201527f6472657373000000000000000000000000000000000000000000000000000000602082015250565b60006128c0602583611bb0565b91506128cb82612864565b604082019050919050565b600060208201905081810360008301526128ef816128b3565b9050919050565b7f45524332303a207472616e7366657220746f20746865207a65726f206164647260008201527f6573730000000000000000000000000000000000000000000000000000000000602082015250565b6000612952602383611bb0565b915061295d826128f6565b604082019050919050565b6000602082019050818103600083015261298181612945565b9050919050565b7f45524332303a207472616e7366657220616d6f756e742065786365656473206260008201527f616c616e63650000000000000000000000000000000000000000000000000000602082015250565b60006129e4602683611bb0565b91506129ef82612988565b604082019050919050565b60006020820190508181036000830152612a13816129d7565b9050919050565b612a2381611fe7565b8114612a2e57600080fd5b50565b600081519050612a4081612a1a565b92915050565b600060208284031215612a5c57612a5b611c61565b5b6000612a6a84828501612a31565b91505092915050565b7f45524331393637557067726164653a206e657720696d706c656d656e7461746960008201527f6f6e206973206e6f742055555053000000000000000000000000000000000000602082015250565b6000612acf602e83611bb0565b9150612ada82612a73565b604082019050919050565b60006020820190508181036000830152612afe81612ac2565b9050919050565b7f45524331393637557067726164653a20756e737570706f727465642070726f7860008201527f6961626c65555549440000000000000000000000000000000000000000000000602082015250565b6000612b61602983611bb0565b9150612b6c82612b05565b604082019050919050565b60006020820190508181036000830152612b9081612b54565b9050919050565b7f4f776e61626c653a2063616c6c6572206973206e6f7420746865206f776e6572600082015250565b6000612bcd602083611bb0565b9150612bd882612b97565b602082019050919050565b60006020820190508181036000830152612bfc81612bc0565b9050919050565b7f496e697469616c697a61626c653a20636f6e7472616374206973206e6f74206960008201527f6e697469616c697a696e67000000000000000000000000000000000000000000602082015250565b6000612c5f602b83611bb0565b9150612c6a82612c03565b604082019050919050565b60006020820190508181036000830152612c8e81612c52565b9050919050565b7f45524332303a206d696e7420746f20746865207a65726f206164647265737300600082015250565b6000612ccb601f83611bb0565b9150612cd682612c95565b602082019050919050565b60006020820190508181036000830152612cfa81612cbe565b9050919050565b7f455243313936373a206e657720696d706c656d656e746174696f6e206973206e60008201527f6f74206120636f6e747261637400000000000000000000000000000000000000602082015250565b6000612d5d602d83611bb0565b9150612d6882612d01565b604082019050919050565b60006020820190508181036000830152612d8c81612d50565b9050919050565b60008190508160005260206000209050919050565b60006020601f8301049050919050565b600082821b905092915050565b600060088302612df57fffffffffffffffffffffffffffffffffffffffffffffffffffffffffffffffff82612db8565b612dff8683612db8565b95508019841693508086168417925050509392505050565b6000612e32612e2d612e2884611cc9565b61255a565b611cc9565b9050919050565b6000819050919050565b612e4c83612e17565b612e60612e5882612e39565b848454612dc5565b825550505050565b600090565b612e75612e68565b612e80818484612e43565b505050565b5b81811015612ea457612e99600082612e6d565b600181019050612e86565b5050565b601f821115612ee957612eba81612d93565b612ec384612da8565b81016020851015612ed2578190505b612ee6612ede85612da8565b830182612e85565b50505b505050565b600082821c905092915050565b6000612f0c60001984600802612eee565b1980831691505092915050565b6000612f258383612efb565b9150826002028217905092915050565b612f3e82611ba5565b67ffffffffffffffff811115612f5757612f56611e60565b5b612f6182546120b4565b612f6c828285612ea8565b600060209050601f831160018114612f9f5760008415612f8d578287015190505b612f978582612f19565b865550612fff565b601f198416612fad86612d93565b60005b82811015612fd557848901518255600182019150602085019450602081019050612fb0565b86831015612ff25784890151612fee601f891682612efb565b8355505b6001600288020188555050505b505050505050565b7f416464726573733a2064656c65676174652063616c6c20746f206e6f6e2d636f60008201527f6e74726163740000000000000000000000000000000000000000000000000000602082015250565b6000613063602683611bb0565b915061306e82613007565b604082019050919050565b6000602082019050818103600083015261309281613056565b9050919050565b600081519050919050565b600081905092915050565b60006130ba82613099565b6130c481856130a4565b93506130d4818560208601611bc1565b80840191505092915050565b60006130ec82846130af565b91508190509291505056fe416464726573733a206c6f772d6c6576656c2064656c65676174652063616c6c206661696c6564a26469706673582212205fbbcd1ad0f471a79732d8c40f0090591a8980bc3adeb8346ade06abab50707864736f6c63430008110033",
  "linkReferences": {},
  "deployedLinkReferences": {}
}